:020000040800F2
:10000000780600208901000891010008930100088A
:100010009501000897010008990100080000000000
:100020000000000000000000000000009B0100082C
:100030009D010008000000009F010008DD1100087C
:10004000A3010008A3010008A3010008A301000800
:10005000A3010008A301000845020008A30100084D
:10006000A3010008A3010008A3010008A3010008E0
:10007000A3010008A3010008A3010008A3010008D0
:10008000A3010008A3010008A3010008A3010008C0
:10009000A3010008A3010008A3010008A3010008B0
:1000A000A3010008A3010008A3010008A3010008A0
:1000B000A3010008A3010008A3010008A301000890
:1000C000A3010008A3010008A3010008A301000880
:1000D000A3010008A3010008A3010008A301000870
:1000E000A3010008A3010008A301000800F002F822
:1000F00000F03AF80AA090E8000C82448344AAF188
:100100000107DA4501D100F02FF8AFF2090EBAE885
:100110000F0013F0010F18BFFB1A43F0010318473B
:10012000A4180000C4180000103A24BF78C878C191
:10013000FAD8520724BF30C830C144BF04680C60ED
:10014000704700000023002400250026103A28BF35
:1001500078C1FBD8520728BF30C148BF0B60704739
:100160001FB51FBD10B510BD00F031F81146FFF7E7
:10017000F7FF01F069F800F04FF803B4FFF7F2FF62
:1001800003BC00F057F800000948804709480047C1
:10019000FEE7FEE7FEE7FEE7FEE7FEE7FEE7FEE737
:1001A000FEE7FEE704480549054A064B7047000094
:1001B000E1110008ED00000878000020780600201A
:1001C000780200207802002070477047704775461B
:1001D00000F02CF8AE4605006946534620F00700B3
:1001E000854618B020B5FFF7DDFFBDE820404FF091
:1001F00000064FF000074FF000084FF0000BAC4630
:10020000ACE8C009ACE8C009ACE8C009ACE8C0097A
:1002100021F007018D46704710B50446AFF300800A
:100220002046BDE81040FFF7A8BF00000048704717
:100230001000002001491820ABBEFEE72600020096
:100240007047000080B5B4B000203290FFE73298CC
:100250004CF24F31884205D8FFE7FFE73298013072
:100260003290F4E7012000210DF1CF0200F0D4FB21
:100270009DF8CF00002840F0BE81FFE701210DF17D
:10028000C702084600F0C8FB9DF8C700012840F0EF
:10029000E480FFE7012100222192084600F00CFDD6
:1002A000219A0321104600F007FD21983090FFE7C6
:1002B000309803283AD8FFE70020209002211E91B1
:1002C00001221F9200F0F8FC1E991F9A104600F0C0
:1002D000F3FC20982F90FFE72F9847F22F51884288
:1002E00005D8FFE7FFE72F9801302F90F4E70221B0
:1002F0001C9100221D92104600F0DEFC1C991D9AF4
:10030000012000F0D9FC1D982E90FFE72E9847F2AF
:100310002F51884205D8FFE7FFE72E9801302E9035
:10032000F4E7FFE7309801303090C1E700201B90E0
:1003300001221A92114600F0BFFC1A9A03211046BE
:1003400000F0BAFC1B982D90FFE72D984DF28F011D
:10035000C0F20301884205D8FFE7FFE72D9801307E
:100360002D90F2E70121189100221992104600F019
:10037000A3FC199A1898032100F09EFC19982C9060
:10038000FFE72C9803283AD8FFE7002017900221B6
:1003900015910122169200F08FFC1599169A1046BD
:1003A00000F08AFC17982B90FFE72B9847F22F510B
:1003B000884205D8FFE7FFE72B9801302B90F4E740
:1003C0000221139100221492104600F075FC13993B
:1003D000149A012000F070FC14982A90FFE72A98E4
:1003E00047F22F51884205D8FFE7FFE72A980130EE
:1003F0002A90F4E7FFE72C9801302C90C1E7002009
:10040000129003210122119200F056FC119A10461D
:10041000114600F051FC12982990FFE729984DF2FF
:100420008F01C0F20301884205D8FFE7FFE7299852
:1004300001302990F2E7032100221092104600F0CB
:100440003BFC109A0121084600F036FC109800F0A1
:10045000DBF8062000F0D8FCCCE040F27000C2F2DD
:1004600000000078012840F0BD80FFE70121002254
:100470000F92084600F020FC0F9A0321104600F06E
:100480001BFC0F982890FFE7289803283AD8FFE72D
:1004900000200E9002210C9101220D9200F00CFC24
:1004A0000C990D9A104600F007FC0E982790FFE774
:1004B000279847F22F51884205D8FFE7FFE7279892
:1004C00001302790F4E702210A9100220B92104696
:1004D00000F0F2FB0A990B9A012000F0EDFB0B985B
:1004E0002690FFE7269847F22F51884205D8FFE76C
:1004F000FFE7269801302690F4E7FFE728980130BF
:100500002890C1E70020099001220892114600F0CE
:10051000D3FB089A0321104600F0CEFB09982590E2
:10052000FFE725984DF28F01C0F20301884205D8FC
:10053000FFE7FFE7259801302590F2E701210691BA
:1005400000220792104600F0B7FB079A0698032195
:1005500000F0B2FB07982490FFE7249803283AD8CC
:10056000FFE700200590022103910122049200F090
:10057000A3FB0399049A104600F09EFB0598239074
:10058000FFE7239847F22F51884205D8FFE7FFE79E
:10059000239801302390F4E7022101910022029276
:1005A000104600F089FB0199029A012000F084FBBB
:1005B00002982290FFE7229847F22F51884205D8EF
:1005C000FFE7FFE7229801302290F4E7FFE7249845
:1005D00001302490C1E7002000F016F8062000F05A
:1005E00013FC06E0002000F00FF8062000F00CFCE1
:1005F000FFE7FFE706E0002000F006F8062000F025
:1006000003FCFFE734B080BD81B08DF8030000200B
:100610008DF802009DF803000F280FDCFFE79DF81E
:100620000310012000FA01F340F21442C4F2010267
:100630001168194311608DF8020003E000208DF865
:100640000200FFE79DF8020001B0704781B08DF80D
:10065000030000208DF802009DF803000F280FDC36
:10066000FFE79DF80310012000FA01F340F2004279
:10067000C4F201021168194311608DF8020003E011
:1006800000208DF80200FFE79DF8020001B07047DE
:1006900080B582B08DF806008DF805109DF8060033
:1006A0000F2805DCFFE79DF80500032804DBFFE7C2
:1006B00000208DF8070037E000208DF804009DF839
:1006C000050020B9FFE700208DF8040017E09DF831
:1006D0000500012804D1FFE701208DF804000DE09A
:1006E0009DF80500022804D1FFE702208DF80400E0
:1006F00003E000208DF8070016E0FFE7FFE79DF814
:1007000006009DF8041000F03BF98DF803009DF8F9
:100710000300012804D1FFE701208DF8070003E062
:1007200000208DF80700FFE79DF8070002B080BDAC
:1007300082B08DF807008DF8061000208DF80500B6
:100740009DF807000F2861DCFFE79DF806000146D1
:10075000009140B1FFE7009801281ED0FFE7009804
:10076000022834D04DE09DF80710012000FA01F373
:1007700040F20842C4F201021168194311609DF869
:10078000071000FA01F340F20C42C4F201021168B2
:10079000994311608DF8050037E09DF8071001209E
:1007A00000FA01F340F20842C4F2010211689943D1
:1007B00011609DF8071000FA01F340F20C42C4F2F8
:1007C00001021168194311608DF805001DE09DF8C4
:1007D0000710012000FA01F340F20842C4F20102BE
:1007E0001168194311609DF8071000FA01F340F2F7
:1007F0000C42C4F201021168194311608DF8050022
:1008000003E000208DF80500FFE703E000208DF8ED
:100810000500FFE79DF8050002B0704780B582B083
:1008200000208DF80700FFE79DF807000F2800F370
:10083000A480FFE79DF8071040F20000C2F200001C
:10084000405C4009C007002800F08380FFE79DF866
:100850000710012000FA01F240F20041C4F2010148
:100860000868104308609DF8071040F20000C2F2CB
:100870000000405CC0F3C1000146009140B1FFE7B9
:10088000009801281CD0FFE70098022830D047E0EC
:100890009DF80710012000FA01F340F20842C4F26B
:1008A00001021168194311609DF8071000FA01F266
:1008B00040F20C41C4F201010868904308602FE047
:1008C0009DF80710012000FA01F340F20842C4F23B
:1008D00001021168994311609DF8071000FA01F2B6
:1008E00040F20C41C4F2010108681043086017E0AF
:1008F0009DF80710012000FA01F340F20842C4F20B
:1009000001021168194311609DF8071000FA01F205
:1009100040F20C41C4F20101086810430860FFE78F
:100920009DF8071040F20000C2F20000405C00F0A9
:100930000700013060B1FFE79DF8070040F20001B9
:10094000C2F20001095C01F0070100F019F8FFE7AD
:100950000CE09DF80710012000FA01F240F200417E
:10096000C4F20101086890430860FFE7FFE79DF8C3
:10097000070001308DF8070056E702B080BD000087
:1009800082B08DF806008DF8051000208DF8040067
:100990009DF806000F2805DCFFE79DF805000328F9
:1009A00005DBFFE79DF804008DF8070030E09DF8B7
:1009B000060080088DF803009DF8060000F0030093
:1009C0008DF806009DF8060081000F2000FA01F363
:1009D0009DF803200821C4F2010151F82200984338
:1009E00041F822009DF805009DF80620920000FACB
:1009F00002F39DF8032051F82200184341F8220029
:100A000001208DF804009DF804008DF80700FFE731
:100A10009DF8070002B0704784B08DF80F008DF884
:100A20000E10029200208DF807000298002846D090
:100A3000FFE79DF80F000146009140B1FFE70098E5
:100A4000012815D0FFE70098022822D032E040F6B6
:100A50000800C4F2010001689DF80E20012000FA90
:100A600002F31940D140029A11708DF8070025E079
:100A700040F60840C4F2010001689DF80E200120F4
:100A800000FA02F31940D140029A11708DF8070064
:100A900014E041F20800C4F2010001689DF80E2044
:100AA000012000FA02F31940D140029A11708DF82A
:100AB000070003E000208DF80700FFE703E00020B7
:100AC0008DF80700FFE79DF8070004B070470000AD
:100AD00082B08DF807008DF806108DF805200020F3
:100AE0008DF804009DF807000146009148B1FFE72A
:100AF000009801284BD0FFE70098022800F08D8075
:100B0000D1E09DF8060007281BDCFFE79DF80600F2
:100B100081000F2000FA01F240F60001C4F2010149
:100B20000868904308609DF805009DF80620920033
:100B300000FA02F208681043086001208DF80400F2
:100B400024E09DF806000F281BDCFFE79DF8060057
:100B500081000F2000FA01F240F60401C4F2010105
:100B60000868904308609DF805009DF806209200F3
:100B700000FA02F208681043086001208DF80400B2
:100B800003E000208DF80400FFE7FFE78FE09DF809
:100B9000060007281BDCFFE79DF8060081000F20F8
:100BA00000FA01F240F60041C4F2010108689043E6
:100BB00008609DF805009DF80620920000FA02F2F8
:100BC00008681043086001208DF8040024E09DF8B7
:100BD00006000F281BDCFFE79DF8060081000F20B0
:100BE00000FA01F240F60441C4F2010108689043A2
:100BF00008609DF805009DF80620920000FA02F2B8
:100C000008681043086001208DF8040003E000200C
:100C10008DF80400FFE7FFE749E09DF8060007288C
:100C20001BDCFFE79DF8060081000F2000FA01F2AF
:100C300041F20001C4F201010868904308609DF888
:100C400005009DF80620920000FA02F208681043A1
:100C5000086001208DF8040024E09DF806000F28AC
:100C60001BDCFFE79DF8060081000F2000FA01F26F
:100C700041F20401C4F201010868904308609DF844
:100C800005009DF80620920000FA02F20868104361
:100C9000086001208DF8040003E000208DF80400B6
:100CA000FFE7FFE703E000208DF80400FFE79DF871
:100CB000040002B07047000085B08DF813008DF875
:100CC00012108DF8112000208DF810009DF81300EF
:100CD0000146039140B1FFE70398012831D0FFE7B7
:100CE000039802285AD086E09DF81100014602912F
:100CF00098B1FFE7029801281ED1FFE79DF8121076
:100D0000012000FA01F340F60C02C4F2010211685E
:100D1000194311608DF8100012E09DF812100120A7
:100D200000FA01F340F60C02C4F201021168994383
:100D300011608DF8100003E000208DF81000FFE72F
:100D40005DE09DF811000146019198B1FFE701981F
:100D500001281ED1FFE79DF81210012000FA01F3CF
:100D600040F60C42C4F201021168194311608DF87B
:100D7000100012E09DF81210012000FA01F340F675
:100D80000C42C4F201021168994311608DF8100001
:100D900003E000208DF81000FFE730E09DF811001F
:100DA0000146009198B1FFE7009801281ED1FFE7A6
:100DB0009DF81210012000FA01F341F20C02C4F276
:100DC00001021168194311608DF8100012E09DF8BE
:100DD0001210012000FA01F341F20C02C4F20102E8
:100DE0001168994311608DF8100003E000208DF820
:100DF0001000FFE703E000208DF81000FFE79DF8EA
:100E0000100005B07047000081B08DF8030000208D
:100E10008DF802009DF803001F280DDCFFE79DF808
:100E20000310012000FA01F14EF28022CEF20002FE
:100E300011608DF8020029E09DF803003F280FDCC7
:100E4000FFE79DF80300A0F12001012000FA01F165
:100E50004EF28422CEF2000211608DF8020014E0FE
:100E60009DF803005F280FDCFFE79DF80300A0F169
:100E70004001012000FA01F14EF28822CEF2000278
:100E800011608DF80200FFE7FFE7FFE79DF8020021
:100E900001B0704781B08DF8030000208DF802008A
:100EA0009DF803001F280DDCFFE79DF803100120CB
:100EB00000FA01F14EF20012CEF2000211608DF83C
:100EC00002002DE09DF803003F280FDCFFE79DF8AE
:100ED0000300A0F12001012000FA01F14EF20412FA
:100EE000CEF2000211608DF8020018E09DF80300B8
:100EF0005F280FDCFFE79DF80300A0F1400101200F
:100F000000FA01F14EF20812CEF2000211608DF8E3
:100F1000020003E000208DF80200FFE7FFE7FFE793
:100F20009DF8020001B0704782B08DF807008DF87F
:100F3000061000208DF805009DF80700014600917D
:100F400040B1FFE70098012813D0FFE7009802287E
:100F50001ED02CE09DF80610012000FA01F341F2AA
:100F60001402C4F202021168194311608DF80500E1
:100F700021E09DF80610012000FA01F341F21C0265
:100F8000C4F202021168194311608DF8050012E0E5
:100F90009DF80610012000FA01F341F21802C4F294
:100FA00002021168194311608DF8050003E000206A
:100FB0008DF80500FFE79DF8050002B070470000BE
:100FC00081B000208DF8030041F20001C4F202015B
:100FD000086820F480200860086840F480300860C9
:100FE000FFE741F20000C4F20200006800F40031A3
:100FF0000020B0EB514F01D1FFE7F2E741F20401CD
:10100000C4F20201012008608DF803009DF803007E
:1010100001B0704780B584B00290029842F200415E
:10102000C4F6741100F002FC00F0D4FB002244F27C
:101030000003C4F28F0300F0F1F900F049FB0190C6
:101040009DF8070058BBFFE701984EF21401CEF25D
:10105000000108604EF21001CEF20001086840F075
:1010600001000860FFE74EF21000CEF200000068B9
:10107000C003002801D4FFE7F5E74EF21001CEF2DD
:101080000001086820F0010008604EF21801CEF25D
:1010900000010020086001208DF80F0003E000200F
:1010A0008DF80F00FFE79DF80F0004B080BD000031
:1010B00080B500F001F880BD84B00020039002905C
:1010C00041F20001C4F20201086840F48030086077
:1010D000FFE741F20000C4F20200006800F40030B3
:1010E0000290039801300390FFE7029900200190DD
:1010F00039B9FFE70398B0F5A06018BF012001904F
:10110000FFE70198C0070028E3D1FFE741F20000A4
:10111000C4F2020000688003002803D5FFE7012025
:10112000029002E000200290FFE70298012851D1CE
:10113000FFE742F20001C4F20201086840F010002B
:101140000860086820F007000860086840F00200A6
:10115000086041F20401C4F20201009108680860CD
:1011600008680860086840F480600860086820F437
:101170007C100860086840F4E810086041F2000143
:10118000C4F20201086840F080700860FFE741F295
:101190000000C4F2020000688001002801D4FFE7CB
:1011A000F5E741F20401C4F20201086820F00300EF
:1011B0000860086840F002000860FFE741F20400A0
:1011C000C4F20200006800F00C00082801D0FFE71C
:1011D000F4E700E0FFE704B070470000704700004C
:1011E00080B541F20002C4F20202106840F0010032
:1011F000106041F20401C4F2020108680023CFF636
:10120000FF031840086010684FF6FF73CFF6F663CF
:1012100018401060106820F480201060086820F4E6
:10122000FE00086041F20801C4F202014FF41F0001
:101230000860FFF73DFF4EF60851CEF200014FF077
:101240000060086080BD000080B596B0002012905C
:101250001590FFF7B5FE022111910846FFF764FED5
:10126000119803210F91FFF75FFE119A1298012147
:101270001091FFF72DFC119A12981146FFF728FCE8
:101280000F99119A1298FFF723FC129910980822CF
:10129000FFF71EFC1099119A0846FFF719FC119AE6
:1012A00010981146FFF714FC0F99119A1098FFF748
:1012B0000FFC0620FFF7EEFDFFF7B0FA1099129829
:1012C000FFF7E6F912990846FFF732FA1298FFF78E
:1012D000BDF9119A12980421FFF7FAFBFFE70020ED
:1012E0000E9001220D921146FFF7E6FC0D9A0321A4
:1012F0000C911046FFF7E0FC44F20000C4F21C60C1
:10130000FFF788FE0D990E9A1046FFF7D5FC0C9951
:101310000E9A0D98FFF7D0FC0D990E9840F27002CE
:10132000C2F2000211701490FFE71498032825D828
:10133000FFE7002009900221089101220A92FFF79D
:10134000BBFC0A9A08991046FFF7B6FC0020C4F2CD
:101350007A400B90FFF75EFE0899099A1046FFF756
:10136000ABFC0899099A0A98FFF7A6FC0B98FFF7BF
:1013700051FEFFE7149801301490D6E740F2700157
:10138000C2F200010020079008700321059101229C
:101390000692FFF791FC069A10461146FFF78CFC67
:1013A00044F20000C4F21C60FFF734FE0599079A6E
:1013B0001046FFF781FC0699079A0846FFF77CFC68
:1013C00007981390FFE71398032825D8FFE700201C
:1013D00002900221019101220392FFF76DFC039A12
:1013E00001991046FFF768FC0020C4F27A4004908F
:1013F000FFF710FE0199029A1046FFF75DFC019974
:10140000029A0398FFF758FC0498FFF703FEFFE7E2
:10141000139801301390D6E761E700002DE9C04131
:1014200030B4DFF8A4C23CEA111418BF3CEA13142C
:1014300000F0ED801CEA111481EA030544EAD5743A
:1014400018BF1CEA131500F0C880A4EB050404F1D2
:101450007F7404F500344FF0004545EAC12145EAA8
:10146000C32341EA505143EA52534FEAC0204FEAA6
:10147000C222994208BF904200F09D804FEA136556
:101480000FF24416765D4FEA134506FB05F7C7F1E8
:10149000807706FB07F74FEAD737A7FB036876424A
:1014A000A7FB06CEC8F5803838BFA8F1010807FBB6
:1014B00008E6A6FB028C4FF0000EE6FB03CEDCF143
:1014C000000CCEF1004E38BFAEF1010EA6FB0C5859
:1014D0004FF00007E6FB0E87A1FB08C6A0FB07CE76
:1014E00016EB0E064FF0000545F10005E1FB076520
:1014F00015F1E04E7EBFA4F580345FEA46066D41EB
:1015000016F1800745F100054FEA172747EA0567FE
:101510004FEA15254FEA0666A6F1DE46B6F1805F72
:1015200020D9384605EBC47124F0010C01EB0C11F5
:10153000BCF1FE6F02D8F0BCBDE8008124425CBF64
:1015400001F5801E9EEAC47F02D4F0BCBDE8008194
:10155000244200F13980A1F1C041F0BCBDE8004156
:1015600000F031B94FEAD02040EA41504FEAD12192
:101570004FEAD22242EA43524FEAD323A7FB028624
:1015800007FB036605FB02661EEA0E0F58BFA6EBBB
:101590000056B6EB00564FEA520E4EEAC37E18EBE9
:1015A0000E0E56EB530EBCD518EB02085E417F1CA5
:1015B00055F10005B5E74FF480154FF000074FF0E7
:1015C00000064FF00008ACE701F1C04101F0004116
:1015D0004FF00000F0BCBDE800810CEA131511EAE1
:1015E0000C1F00D00CE013EA0C1F00F026804FF017
:1015F000000081EA030101F00041F0BCBDE8008178
:10160000F0BCBDE8004181EA030100F0DCB8F0BCA9
:10161000BDE8004170B500F088F800BF097EFC3ECF
:1016200000F007B84FF0000081EA030101F000412B
:10163000704781EA030100F0C6B8F0BCBDE8004184
:1016400022494FF000007047FFFDFBF9F7F5F4F277
:10165000F0EEEDEBE9E8E6E4E3E1E0DEDDDBDAD84D
:10166000D7D5D4D3D1D0CFCDCCCBCAC8C7C6C5C4AB
:10167000C2C1C0BFBEBDBCBBBAB9B8B7B6B5B4B3C2
:10168000B2B1B0AFAEADACABAAA9A8A8A7A6A5A4AD
:10169000A3A3A2A1A09F9F9E9D9C9C9B9A99999871
:1016A0009797969595949393929191908F8F8E8E14
:1016B0008D8C8C8B8B8A89898888878786858584A1
:1016C00084838382828181800000FF070000F87F8D
:1016D0004FEA1153A3F58063D3F11E03A8BFD3F1E2
:1016E000200C08DB4FF0004242EAC12252EA50527D
:1016F00032FA03F0704709420BD4102BC4BF00200C
:10170000704703F5787CBCF1FF3F05D04FF0FF3008
:1017100070474FF00000704770B500F006F800BF4A
:101720004992248000207047F0E70EF1020E2EF05F
:10173000030E5EF8046B364205D4012A43EB030521
:1017400015F5001F12D8012841EB010C1CF5001FF4
:101750000CD80ED14FEAD17C0CEB4C0C0CF1020CE6
:1017600015F5001F08BF4CEBD37C04E04FF0080CCC
:1017700001E04FEAD37C0CEB4C0526FA05F606F0A7
:101780000706B6F1040C06D20EEB860CBDE87040DD
:101790004CF0010C6047DFE80CF0090B02024FF03F
:1017A0000041A1F500214FF0000070BD1946104620
:1017B000012851EB010418BFD4F5001484BF0020A8
:1017C00001F0004170BD0808A0F500114FEA310199
:1017D0007047000043004FEAD30C4FEA3C0C4340F3
:1017E0001FBF40070CF1605113F0FE4F70471CF013
:1017F000006F03D10CF00041002070470CF0004353
:1018000043EA507040EACC0010B500F090F800BFF9
:10181000000000924FEA0001FFF7D5BF4FF00041F2
:10182000A1F500214FF00000704700004FF47F0C3D
:101830001CEAD0121EBF1CEAD11392EA0C0F93EAE5
:101840000C0F00F0478090EA010F48BF42F480720D
:101850004FF0004C4CEA00204CEA012102EB03025D
:10186000A0FB0113A2F50002002918BF43F00103F9
:101870005B0028BF4FEA330342EB22425FEA132C9E
:101880004CEBC2502EBFBCEB436FB2F57C0F7047E0
:101890004FEA036CBCF1004F08BF20F00100B2F525
:1018A0007C0F38BF70470BD582F0FF0212F5803FE6
:1018B000C8BF704700F1C040D8BF00F0004070477B
:1018C00000F5000C5FEA4C0C48BF7047B0F1C04017
:1018D00000F073B80CEAD11390EA010F48BF42F44C
:1018E0008072624538BF634504D280EA010000F08F
:1018F0000040704710B500F01AF800BF8900013EA3
:1019000000F007B800F009B85FEA410C5FEA1C6C10
:1019100008D080EA010000F050B85FEA400C5FEAAE
:101920001C6CF6D14FF00040A0F5800070470EF11E
:10193000020E2EF0030E5EF8044B244204D44FEA4C
:101940004102B2F17F4F11D84FEA4003B3F17F4F0C
:101950000CD80ED14FEAD07C0CEB4C0C0CF1020CE5
:10196000B2F17F4F08BF4CEBD17C04E04FF0080C84
:1019700001E04FEAD17C0CEB4C0324FA03F404F0B1
:101980000704B4F1040C06D20EEB840CBDE8104041
:101990004CF0010C6047DFE80CF0070802024FF042
:1019A0000040A0F5800010BD0846420018BFD2F1EB
:1019B000807288BF00F0004010BDFF2141EAD05086
:1019C000C0057047E4190008000000201000000066
:1019D00028010008F4190008100000206806000023
:1019E00044010008200F1717171717171717171795
:0419F0001717171797
:040000050800018965
:00000001FF
